:020000040800F2
:10000000100400209D010008B30D00083D0D0008FC
:10001000B10D000809020008F50E000800000000FC
:10002000000000000000000000000000350E000885
:100030000B02000800000000B50D0008370E000894
:10004000B7010008B7010008B7010008B7010008B0
:10005000B7010008B7010008B7010008B7010008A0
:10006000B7010008B7010008B7010008B701000890
:10007000B7010008B7010008B7010008B701000880
:10008000B7010008B7010008B7010008B701000870
:10009000B7010008B7010008B7010008B701000860
:1000A000B7010008B7010008B7010008B701000850
:1000B000B7010008B7010008B7010008B701000840
:1000C000B7010008B7010008B7010008B701000830
:1000D000B7010008B7010008B7010008B701000820
:1000E000B7010008B7010008B7010008B701000810
:1000F000B7010008B7010008B7010008B701000800
:10010000B7010008B7010008B7010008B7010008EF
:10011000B7010008B7010008B7010008B7010008DF
:10012000B7010008B7010008B7010008B7010008CF
:10013000B7010008B7010008B7010008B7010008BF
:10014000B7010008B7010008B7010008B7010008AF
:10015000B7010008B7010008B7010008B70100089F
:10016000B7010008B7010008B7010008B70100088F
:10017000B7010008B7010008B7010008000000003F
:10018000B7010008B7010008DFF80CD000F02AF82A
:1001900000480047350F000810040020064880473B
:1001A00006480047FEE7FEE7FEE7FEE7FEE7FEE75C
:1001B000FEE7FEE7FEE7FEE7B10E00088901000852
:1001C000D2B201E000F8012B491EFBD27047002299
:1001D000F6E710B513460A4604461946FFF7F0FF46
:1001E000204610BD064C074D06E0E06840F00103D4
:1001F00094E8070098471034AC42F6D3FFF7C8FFE5
:100200002410000844100008FEE7704770B504464B
:1002100000F046F90546601C02D00448007804440A
:1002200000F03EF9401BA042FAD370BD0000002050
:100230002DE9F04FDFF83492002309F1040A01247C
:1002400003250AF1040B87B00F270BF1040E04E11C
:1002500004FA03F632407CD0D1F804C0BCF1010F9F
:1002600008D0BCF1020F05D0BCF1110F02D0BCF1D7
:10027000120F29D1D0F808C0CDF800C04FEA430CC6
:1002800005FA0CF8CDF80CC0DDF800C02CEA080C1B
:10029000CDF800C0D1F80C80DDF80CC008FA0CF8DD
:1002A000DDF800C048EA0C08C0F80880D0F80480E7
:1002B00091F804C028EA0608CCF3001C0CFA03FCF1
:1002C0004CEA080CC0F804C0D1F804806FEA080CAE
:1002D0005FEA8C7C09D1D0F82CC02CEA060CC8F35C
:1002E000C0069E4046EA0C06C662D0F80CC04FEA33
:1002F000430805FA08F62CEA060CCDF8148002969D
:100300008E6806FA08F646EA0C06C6604E68022EAB
:1003100001D0122E15D1DE0800EB86060396366A50
:100320004FEA437C4FEADC6807FA08FC26EA0C0631
:10033000D1F810C00CFA08FC4CEA060C039EC6F873
:1003400020C00668DDF808C026EA0C0691F804C053
:1003500000E081E0DDF814800CF0030C0CFA08FCDE
:100360004CEA060CC0F800C04E68F60074D5404E4A
:10037000D6F860C04CF0010CC6F860C0366E23F0B1
:10038000030C06F0010600963A4E66440296D6F833
:1003900008C09E074FEA167807FA08F62CEA060C02
:1003A000B0F1904F04D0344EB04203D101261BE08F
:1003B000002619E0314EB04201D1022614E0304E41
:1003C000B04201D103260FE02E4EB04201D10426E7
:1003D0000AE02D4EB04201D1052605E02B4EB04279
:1003E00001D1062600E0072606FA08F646EA0C06C2
:1003F000DDF808C0CCF80860D9F80060CC46D1F828
:10040000048096435FEAC83800D51643CCF80060F4
:10041000DAF80060D446D1F8048096435FEA883861
:1004200000D51643CCF80060DBF80060DC46D1F85C
:10043000048096435FEAC82800D51643CCF80060D4
:10044000DEF80060F446D1F8048096435FEA88281D
:1004500000D51643CCF800605B1C0A6832FA03F63C
:100460007FF4F6AE07B000F013B8000000040140BE
:10047000001002400000014000040048000800484D
:10048000000C004800100048001400480018004804
:1004900030BCBDE8C08F0AB181617047816270478E
:1004A0000148806870470000000000200248816811
:1004B00002781144816070470000002010B50024CC
:1004C000032000F063F8002000F008F808B10124D0
:1004D00001E000F025F8204610BD000070B50E4E7A
:1004E00005460024307898B14FF47A71B1FBF0F0F2
:1004F0000A490968B1FBF0F000F00CFC40B9102D7E
:1005000006D200222946501E00F020F8756000E057
:100510000124204670BD0000000000200C000020D7
:10052000094808B5016E41F001010166016E01F054
:1005300001010091816D41F080518165806D00F075
:100540008050009008BD000000100240F0B40E4B37
:100550001B680C46C3F30223C3F10705042D00D921
:100560000425191D072901D2002300E0DB1E012606
:1005700006FA05F1491E214099409E40761E16401C
:100580003143F0BC00F0B7BC0CED00E0064900F0D0
:10059000070208684FF6FF03184040EA0220034AAA
:1005A00010430860704700000CED00E00000FA0501
:1005B0001649B0F5007F0868C0F3412009D0022831
:1005C00005D0086820F4C06040F480600860002016
:1005D00070470128FBD0086820F4C06040F4007028
:1005E00008600B483222006850430A4AB0FBF2F020
:1005F000401C00E0401E4A69520501D50028F9D18F
:1006000048694005E3D503207047000000700040B2
:100610000C00002040420F000248006800F4C06057
:1006200070470000007000402DE9F0470F460500BC
:1006300058D0404E306800F00700B84209D2306808
:1006400020F0070038433060306800F00700B842FF
:1006500048D12878384CC0072CD06868032811D0BE
:10066000022812D0216898B1490500293ADAA16818
:1006700021F003010143A160FFF712FF804641F220
:10068000883910E021688901EFE721688903ECE7E8
:100690008907EAE7FFF704FFA0EB0801494502D903
:1006A0000320BDE8F087A068696800F00C00B0EB9B
:1006B000810FEFD12878800705D5A068A96820F0C0
:1006C000F0000843A060306800F00700B8420BD982
:1006D000306820F0070038433060306800F00700D1
:1006E000B84201D00120DCE72878400705D5A06892
:1006F000E96820F4E0600843A0602878000706D588
:10070000A068296920F4605040EAC100A06000F0B0
:100710001BF8A168094AC1F30311515C01F01F01E4
:10072000C8400749086007480068BDE8F047FFF780
:10073000D5BE00000020024000100240E40F000877
:100740000C0000200400002070B525490023184645
:100750008A68CC6812F00C0204F00306214C4FEAC0
:10076000640509D00C2A05D0042A32D0082A00D109
:10077000284670BD012E10D10B681B0704D4D1F898
:100780009430C3F3032302E00B68C3F30313164E44
:1007900056F82330DAB10C2AEBD1C86800F0030018
:1007A000022818D0032818D01846CA68CB68C2F3AC
:1007B0000212C3F306234343521CB3FBF2F2C86890
:1007C000C0F34160401C4000B2FBF0F070BD184621
:1007D00070BD204670BD2046E7E72846E5E70000EB
:1007E000001002400024F400F40F00082DE9F84343
:1007F00004006FD0FE4DA86800F00C06E86800F019
:1008000003072078C00664D576B10C2E01D1012FE4
:100810000AD0A069002828687AD040F0010028603A
:10082000FFF73EFE80465DE02868800702D5A0699C
:100830000028DED0216A2868000703D5286800F068
:10084000F00004E0D5F89400F02202EA1010814292
:1008500016D9084600F0B0FA00283BD1286840F0CD
:10086000080028602868216A20F0F000084328600A
:100870006868E16920F47F4040EA0120686016E082
:10088000286840F0080028602868216A20F0F000FD
:10089000084328606868E16920F47F4040EA01204D
:1008A000686026B9206A00F087FA0028D5D1FFF7E2
:1008B0004BFFA968CF4AC1F30311515C01F01F013E
:1008C000C840CD490860CD480068FFF707FE002802
:1008D0007ED12EE0CAE000BFFFF7E2FDA0EB0800EA
:1008E000022876D828688007F6D5286840F00800E6
:1008F00028602868216A20F0F000084328606868B2
:10090000E16920F47F4040EA0120686011E0FFE7E0
:1009100020F001002860FFF7C3FD804606E000BF1D
:10092000FFF7BEFDA0EB08000228DAD82868800790
:10093000F6D42078C00740D0082E18D00C2E01D154
:10094000032F14D06068B0F5803F17D0B0F5A02F0A
:10095000286817D020F480302860286820F4802090
:1009600028606068E0B1FFF79BFD804614E02868CE
:10097000800322D56068002878D01EE0286840F403
:100980008030EDE740F480202860F7E7FFF788FD2E
:10099000A0EB08006428A4D828688003F6D50CE0F2
:1009A000FFF77EFD804605E0FFF77AFDA0EB08002B
:1009B000642896D828688003F6D4207880073BD531
:1009C000042E11D00C2E01D1022F0DD0E06801E0D1
:1009D00092E1F1E0002828681ED040F48070286081
:1009E000FFF75EFD07460CE0286840050CD5E0687F
:1009F0000028C1D008E000BFFFF752FDC01B02284D
:100A000093D828684005F7D56868217C20F0F85015
:100A100040EA016068600FE020F480702860FFF712
:100A20003FFD074605E000BFFFF73AFDC01B022867
:100A3000B1D828684005F7D42078000729D5606927
:100A40000028D5F8940012D040F00100C5F89400B9
:100A5000FFF726FD074604E0FFF722FDC01B022832
:100A600099D8D5F894008007F6D512E000E120F07F
:100A70000100C5F89400FFF713FD074605E000BF2D
:100A8000FFF70EFDC01B022885D8D5F8940080071B
:100A9000F6D42078400766D5A86D0027C00008D49A
:100AA000A86D40F08050A865A86D012700F0805027
:100AB000009053480168C90512D40168814641F489
:100AC00080710160FFF7ECFC804605E0FFF7E8FC71
:100AD000A0EB080002286FD8D9F80000C005F5D5B2
:100AE000A068012816D00528D5F8900017D020F06E
:100AF0000100C5F89000D5F8900020F0040000BF78
:100B0000C5F89000A06841F28839C0B1FFF7C8FC71
:100B100080460FE0D5F8900040F00100F0E740F08B
:100B20000400C5F89000F5E7FFF7BAFCA0EB080158
:100B3000494541D8D5F890008007F5D50EE0FFF77C
:100B4000AFFC804606E000BFFFF7AAFCA0EB08015F
:100B5000494531D8D5F890008007F5D41FB1A86D6C
:100B600020F08050A865A06A38B302280AD00C2E65
:100B70007ED0286820F080702860286810F0205F00
:100B800077D0AAE0E868E26A00F0030191422BD135
:100B9000216B00F0700209011039914224D1626B7F
:100BA00000F4FE41B1EB022F1ED1A26B00F4003124
:100BB000072A03D0012202E09DE089E00022914251
:100BC00012D1A18F00F4C00249084905A1F5001116
:100BD000914209D194F8401000F0C06049084906DC
:100BE000A1F1007181425CD00C2E41D0286809E04F
:100BF00000100240E40F00080C0000200400002058
:100C00000070004040017ED42868C0007BD4286872
:100C100020F080702860FFF743FC064605E000BF27
:100C2000FFF73EFC801B022865D828688001F7D4B6
:100C3000D4E90B016FF00F0202EB01110843A18F01
:100C40005204490802EB4151626B41EA0221084318
:100C500094F840104FF07E42490802EB416108438E
:100C6000A16B090940EA4140E968284A114001E0C6
:100C700049E02EE00843E860286840F08070286072
:100C8000E86840F08070E860FFF70AFC044604E082
:100C9000FFF706FC001B02282DD828688001F7D535
:100CA0002FE0286880012CD4286840F080702860EC
:100CB000E86840F08070E860FFF7F2FB044604E06B
:100CC000FFF7EEFB001B022815D828688001F7D536
:100CD00017E0E86820F00300E860E8680C49084085
:100CE000E860FFF7DDFB044608E000BFFFF7D8FB34
:100CF000001B022802D90320BDE8F8832868800180
:100D0000F4D40020F8E70120F6E700008C809DF97C
:100D1000FFFFEEFE10B5401EB0F1807F01D3012031
:100D200010BD4FF0E02460610F21601700F0E3F880
:100D30000020A06107202061002010BDFEE7000018
:100D400030B587B014216846FFF741FA1648C16CE8
:100D500041F00401C164C16C01F004010591C16C52
:100D600041F08001C164C16C01F080010591C16C4A
:100D700041F00101C164C06C0C4D00F001004FF462
:100D800030540590012221462846FFF784FB0120BC
:100D900000210094CDE90101039169462846FFF73F
:100DA00047FA07B030BD00000010024000080048BC
:100DB000FEE7FEE770470000F8B51C4D064600242C
:100DC000A86DC00002D5FFF727FC0DE0A86D40F02C
:100DD0008050A865A86D00F080500090FFF71CFCC3
:100DE000A96D21F08051A965B0F5007F04D0802E57
:100DF00007D94FF003040AE0802E08D9A02E01D8AD
:100E000004E001D1022402E0702E00D10124084840
:100E1000016821F0070121430160006800F007002C
:100E2000A04201D00120F8BD0020F8BD0010024012
:100E3000002002407047FFF739BB10B596B044213F
:100E40006846FFF7C4F9142111A8FFF7C0F9102074
:100E500000900120002460210690CDE90741022185
:100E6000CDE90A100C9028200D900720CDE90E0145
:100E700068461091FFF7BAFC08B172B6FEE70F2082
:100E800011900320CDE912041494042111A81594A3
:100E9000FFF7CAFB08B172B6FEE74FF40070FFF728
:100EA00087FB002801D072B6FEE716B010BD000027
:100EB0000D48016841F4700101600C48016841F07F
:100EC00001010160002181600268094B1A40026043
:100ED0008214C260026822F48022026081610249A9
:100EE000C00380390860704788ED00E000100240C0
:100EF000FFFFF6EAFEE70907090E002804DB00F110
:100F0000E02080F80014704700F00F0000F1E020AE
:100F100080F8141D704702E008C8121F08C1002A9B
:100F2000FAD170477047002001E001C1121F002A6A
:100F3000FBD17047FFF7C2FAFFF77FFFFFF700FF13
:100F40004FF40054264DA610E7104FF49678002277
:100F500021462846FFF79FFA012231462846FFF72F
:100F60009AFA012239462846FFF795FAC820FFF77A
:100F70004DF9012221462846FFF78DFA002231461D
:100F80002846FFF788FA012239462846FFF783FAF8
:100F9000C820FFF73BF9012221462846FFF77BFADC
:100FA000012231462846FFF776FA002239462846C4
:100FB000FFF771FAC820FFF729F9012221462846D8
:100FC000FFF769FA012231462846FFF764FA012249
:100FD00039462846FFF75FFA4046FFF717F9B6E7AC
:100FE00000080048000000000000000001020304A7
:100FF00006070809A0860100400D0300801A0600BC
:1010000000350C0040420F0080841E0000093D00A6
:1010100000127A000024F40000366E010048E80156
:10102000006CDC02441000080000002010000000EA
:10103000160F0008541000081000002000040000E3
:10104000260F000801000000100000000000000052
:0410500000093D0056
:040000050800018965
:00000001FF
